:100000006F00B0691300000013000000130000002F
:100010001300000013000000130000001300000094
:100020001300000013000000130000001300000084
:08003000130000007300100032
:100038000000000000000000DC0D0000DE0D0000E4
:1000480000000000E00D00000000000000000000BB
:10005800E20D0000E40D00000000000000000000B8
:10006800E60D000000000000E80D000000000000A0
:10007800EA0D0000EC0D0000EE0D0000F00D000090
:10008800F20D0000F40D0000F60D0000F80D000060
:10009800FA0D0000FC0D0000FE0D0000000E00002F
:1000A800020E0000040E0000E0030000080E00002D
:1000B8000A0E00000C0E00000E0E0000100E0000CC
:1000C800120E0000140E0000160E0000180E00009C
:1000D8001A0E00001C0E00001E0E0000200E00006C
:1000E800220E0000240E0000260E0000280E00003C
:1000F8002A0E00002C0E00002E0E0000300E00000C
:10010800320E0000340E0000360E0000380E0000DB
:100118003A0E00003C0E00003E0E0000400E0000AB
:10012800420E0000440E0000460E0000480E00007B
:100138004A0E00004C0E00004E0E0000500E00004B
:10014800520E0000540E0000560E0000580E00001B
:100158005A0E00005C0E00005E0E0000600E0000EB
:10016800620E0000640E0000660E0000680E0000BB
:100178006A0E00006C0E00006E0E0000700E00008B
:10018800720E0000740E0000760E0000780E00005B
:100198007A0E00007C0E00007E0E0000800E00002B
:1001A800820E0000840E0000860E0000880E0000FB
:1001B8008A0E00008C0E00008E0E0000900E0000CB
:1001C800920E0000940E0000960E0000980E00009B
:1001D8000000000000000000000000000000000017
:1001E8000000000000000000000000000000000007
:0801F8000000000000000000FF
:10020000397101436EC619A0397141536AC866CA73
:1002100062CC5ECE19A0397101535AD056D252D455
:100220004ED64AD826DA22DC06DE330161408282CD
:1002300041114AC026C222C406C68282B24D410183
:10024000024D924C224CB24B4101024B924A224A3F
:10025000B2494101024992442244B24041018280A4
:10026000EFF21FFD856705641387074713044447B2
:10027000198C098481441389074763938400D9BF8B
:1002800093972400CA979C4385048297FDB7B717BC
:100290000140138707806319E500371702401C4FA0
:1002A00093E747001CCF8280138707C06318E500DF
:1002B000371702401C4F93E78700EDB76318F5002E
:1002C000371702401C4F93E70701E9BF93870740A8
:1002D0006318F500371702401C4F93E70702D9B7A0
:1002E000B727014093870780E31FF5FA37170240CD
:1002F0001C4F93E707047DB73797980013070768EB
:10030000B7270240D447858A89C67D1765FF09450E
:100310008280D8470545518B65FF984B014513777F
:1003200007027DD7984B1367070298CB82808567B9
:10033000139825009387C71DC2979C430CC15CC1CD
:10034000B147B387F502B705002093850500BE9538
:1003500090C1D4C198C58280371702405C4B93E7A7
:1003600037005CCB14413147B387E60237070020E2
:10037000130707003E971C4385CF85679387472265
:100380008A06BE9694420346870037E700E0BA9695
:100390002380C64014418A06B697904385469357FA
:1003A0005600938707048A07B396C600BA9794C38A
:1003B0005C4123A007008280EFF29FE741112A846D
:1003C0002EC632C436C23AC0413F5C40B2452246D6
:1003D00092468CC70247D0C794C3D8C341019DBD84
:1003E000B707024005678C43D8C3B707002093873F
:1003F0000700D85309C78857B181BD890297730098
:1004000020301C41B7360140138706C0639BE700CC
:10041000B71602409C4E056713070780D98F9CCE04
:100420008280370700406399E700371702405C4F2E
:1004300093E717005CCF8280130707406398E700BB
:10044000371702405C4F93E72700EDB7371700409E
:10045000130607806398C700371702405C4F93E785
:100460004700C9BF130607C06398C700371702408B
:100470005C4F93E787007DBF6398E7003717024022
:100480005C4F93E707017DB7130707406398E700C8
:10049000371702405C4F93E7070269BF9386064017
:1004A0006399D700371702401C4F8966D58F1CCF40
:1004B000828037570140930607C06398D7003717EB
:1004C00002401C4FB7060800D5B7E393E7FE371785
:1004D00002401C4FB7061000D1BFEFF27FD541118B
:1004E0002EC632C436C22A845D3322469246B245B5
:1004F0000A069D47D18E63E2B70218408A05BD47C0
:10050000B397B70093C7F7FFF98F1CC01C40B39691
:10051000B600DD8E14C0410135BB8A0558408115F7
:10052000BD47B397B70093C7F7FFF98F5CC05C4036
:10053000B396B600DD8E54C0F9BFEFF27FCF411104
:100540002EC632C436C22A849933371702401C4F54
:1005500022469246B24593E717000A061CCF558EF5
:100560009D479366860063E2B70218408A05BD473F
:10057000B397B70093C7F7FFF98F1CC01C40B39621
:10058000B600DD8E14C04101F1B1E11558408A0575
:10059000BD47B397B70093C7F7FFF98F5CC05C40C6
:1005A000B396B600DD8E54C0F9BFEFF27FC8B7072F
:1005B000002003A407809967938757AA13170401A3
:1005C00041836319F702371500001305C537112D54
:1005D000935764018D8B09476388E7020D47638A4F
:1005E000E7020547638DE700371500001305453A1C
:1005F000CD2B8DB13715000013050539C9BF37154F
:1006000000001305C53BEDB7371500001305453D48
:10061000C5B7371500001305C53ED9BFEFF25FC15E
:1006200037270240930700035CC71C4BAA842E8423
:1006300093F707088DEF372702401C4B93F70720ED
:10064000BDC7B7270240984B1367070198CB984B5B
:100650001367070498CB93170401C1832390F40018
:1006600061390DE9418023918400793125A0996792
:1006700073900780B70667459386361254C3B796C2
:10068000EFCD9386B69A54C39387870873900780FB
:10069000A53155D13724024085311C4893F7F7DF47
:1006A0001CC899391C4893E707081CC865B69967A8
:1006B00073900780B70667459386361214C7B796BE
:1006C000EFCD9386B69A14C79387870873900780F7
:1006D000253125D9C1B737070020AA871305078020
:1006E00003270780B705403FFD1593966701F98DF5
:1006F00093C7F7FFD58DFA07DD8D6307B700EFF2DB
:100700003FB3293F5D35B9B68280371702401C439D
:10071000C1664111D58F1CC3096702C61307773222
:10072000B7160240B247636BF7009C421396E7008E
:1007300063400602B24785073EC6EDB7B7160240D2
:100740009C4241777D17F98F9CC20545410182800B
:100750000145EDBF371702401C43B70600014111A8
:10076000D58F1CC3096702C613077732B71602403C
:10077000B247636BF7009C42139667006341060221
:10078000B24785073EC6EDB7B71602409C42370711
:1007900000FF7D17F98F9CC205454101828001450C
:1007A000EDBFB7170240884345810589828037171E
:1007B000024003284700B708C1FFFD18337818012D
:1007C0004A053365050189ED3747024083270780D5
:1007D00093E707012320F780B7170240C8C3828040
:1007E00085476398F5003747024083270780BD9B04
:1007F000D5B7C1675D8D5C57C175C115ED8FD58FBC
:10080000D18F5CD7D1BF371702405C434111B71677
:100810000240F19BC98F5CC3096702C61307773298
:10082000B247636BF700DC4289838D8B638BA70033
:10083000B24785073EC6EDB7371702405C43F19BD0
:100840005CC341018280371702405C43894689833B
:100850008D8B639FD70C5C43C18393F6C703856779
:100860009387C72FB69790435C439396F70063D165
:10087000060A5C5754579395F60063D205085457FF
:100880005857B7177A009387072011833D8B0507C8
:10089000B3D7E70213D766009376C703056713073C
:1008A000C73336971843B387E7028583B387C702F8
:1008B000858337160240584209839376C70305673C
:1008C0001307C7293697184385669386C62DB3D775
:1008D000E70023A8F180584250421983718B369764
:1008E000184333D7E70023A4E18013579600718B98
:1008F000BA969842B3D7E70023A6F1808280BD8BD9
:1009000037177A00850713070720B357F70279BF17
:10091000B747024003A70780418B11E7B7173D0097
:100920009387079061B7B7177A0093870720BDBFF9
:10093000B7177A0093870720ADBFEFF27F8F03A62A
:10094000818083A6C18083A50181B7470F0093876B
:100950000724B3D6F602371500001305C526335613
:10096000F602B3D5F502B52CF5B0EFF2DF8A01112E
:10097000AA84480801442A89254333F8C502B3D81C
:10098000C5029377F80F636F030393870703E207AA
:10099000E1872300F5000504050563F3C502A2897C
:1009A0009C4036C69C4363F5D902BA853AC4268575
:1009B00082972247B24611C9314505616FF0FF8821
:1009C000C68565BF93877703D9B78509D1BF75D42D
:1009D0009C407D14330789009C43830507002685CE
:1009E000829775D5D1BFEFF2BF814111AA84AE873E
:1009F000328493095002930A0003130AA002294B80
:100A0000838507001389170081E99C402685DC4314
:100A1000829741016FF09F82638835019C409C431F
:100A20002685829741C5D5B703871700930B00022F
:100A30006316570113892700930B0003814625474E
:100A400005098307F9FF138607FD1376F60F63691F
:100A5000C70093178601E187B3866603BE96CDB7BC
:100A600063964701830704001104FDB71307E002F2
:100A70006390E702254605098307F9FF138707FD01
:100A80001377F70FE379E6FE639447011104E5B7A6
:100A900013073006638BE708634EF7021307100451
:100AA0006384E70E6346F70063883713CA8789BFFC
:100AB000130730056387E70813078005E398E7FE0F
:100AC000130C44005E8741460C402685793D15FD98
:100AD0006284E9BF130790066388E700634AF70260
:100AE00013074006E394E7FC130C44000040635DE9
:100AF00004009C4036C69305D0029C43268582970D
:100B000009F5B246330480405E872946A28575BF49
:100B1000130730076387E70213075007E398E7F8E6
:100B2000130C44005E87294645B79C4083050400AA
:100B300026859C43930B44008297E31805EC5E8462
:100B4000B5B7832C040036C66685BD2DB2462A8C07
:100B500083850C0081CD9C4036C626859C43850C40
:100B60008297B246E31305EAE3940CFE338C864188
:100B70006344800111041DBF9C40DE8526859C4393
:100B80007D1C829775D551B5032C8400832C0400FD
:100B9000032D4400931D8C01814B93DD8D4163C473
:100BA000AB01310421B763407003B3877C0183C577
:100BB0000700130700038946414626857D33E31667
:100BC00005E4850BE9BFE3020CFE9C40EE8526851B
:100BD0009C43829779D915BD9C40930550029C4354
:100BE00081B539712ED2AA853705002032D413057C
:100BF0008511501006CE36D63AD83EDA42DC46DEB3
:100C000032C6D533F24021618280832645400327D6
:100C1000054193074540958F6373F700BA87232AF0
:100C2000F5408DCB0327454A2306054054C783274B
:100C300045415CC31C41D44383D70600C207C1832E
:100C400093F7F7FBC207C1832390F6001C4393E799
:100C500017001CC382800327454A1C43F99B1CC311
:100C6000832645418327054103274540958F3697C5
:100C70002328F540930645406379D7002322E540B9
:100C800081EB85472306F540828013074500FDB7B9
:100C9000EFF20FDA9D3F6FF0EFDBEFF26FD9653FB8
:100CA0006FF04FDB032705419307F03F63EBE7024B
:100CB00083278540138717002324E5402380B7004E
:100CC00003278540930745406366F7009307450077
:100CD0002324F5408327054185072328F540014556
:100CE0008280314582808347C54091C7EFF24FD45F
:100CF000293F6FF02FD682801C41B7460140938672
:100D00000680D8439043631BD70083A7C180B3D725
:100D1000C702C207C1832314F700828083A78180A2
:100D2000FDB7EFF2EFD01C412A843715014083D57F
:100D300007018546014613050580EFF01F801C4022
:100D40008D46014683D507018847EFF00FFF1C4011
:100D5000D843B7470140938707806313F7063717D7
:100D600002401C4F9166D58F1CCF228571371C40E5
:100D70001305044ADC4323980700EFF0EFDD1C4025
:100D80000327444A8966DC4391071CC71C40DC4F9B
:100D90001CC385472306F4401C403147DC4323969F
:100DA000E7001C401307000CDC43239AE7001C40BB
:100DB000D8438357C700D58F2316F7006FF08FC92C
:100DC000B747004093870740E311F7FA371702400F
:100DD0005C4FB7060200D58F5CCF41BF01A001A0D8
:100DE00001A001A001A001A001A001A001A001A0FB
:100DF00001A001A001A001A001A001A001A001A0EB
:100E000001A001A001A001A001A001A001A001A0DA
:100E100001A001A001A001A001A001A001A001A0CA
:100E200001A001A001A001A001A001A001A001A0BA
:100E300001A001A001A001A001A001A001A001A0AA
:100E400001A001A001A001A001A001A001A001A09A
:100E500001A001A001A001A001A001A001A001A08A
:100E600001A001A001A001A001A001A001A001A07A
:100E700001A001A001A001A001A001A001A001A06A
:100E800001A001A001A001A001A001A001A001A05A
:100E900001A001A001A001A001A097010020938161
:100EA000E1A517F101201301E11517050000130555
:100EB000A55C97F5FF1F9385E5141386818063FA7F
:100EC000C5008322050023A0550011059105E3EA22
:100ED000C5FE138581809385C1CF6377B50023203C
:100EE00005001105E36DB5FEFD42739002BCAD42F5
:100EF00073904280B76200009382820873A0023030
:100F000097F2FFFF9382821393E232007390523084
:100F1000EFF00FB5970200009382E2057390123450
:100F20007300203001458280014582800145828026
:100F300001458280397132D4301006CE36D63AD887
:100F40003EDA42DC46DE32C6793CF24021618280E4
:100F50001305C5B4C5B7EFF2AFAD110569336FF036
:100F60006FAFEFF2EFAC93F5F50F1105253B6FF086
:100F70006FAEEFF2EFAB4111EFF02FF909ED8146C3
:100F8000014689452945EFF09F82EFF0AFFC01E56E
:100F90000945EFF05F87EFF01F8B138541825133D6
:100FA00037160000B7150000371500001306064578
:100FB00093850546130585462D314132EFF06FFECE
:100FC0006312051237150000130505441939EFF0B7
:100FD000CFDD0145EFF02FF03714014013050480F9
:100FE00085460146A145EFF04FCF130504808946A1
:100FF00001468945EFF06FD4894601468D451305BA
:101000000480EFF08FD31384C1811385C181EFF089
:101010004FBF1C40E17603D7070037060020B755C5
:101020000140136707082390E70013078007239602
:10103000E70203D7C700938441811306860D136727
:1010400007102396E70003D707029385C5C41385CD
:101050004181136717002390E7022392D70403D737
:101060000702136707012390E7022392D7041307AF
:10107000D0102394E70403D787019D6693860680EA
:1010800042074183137707F013678706239CE70025
:1010900003D787011377F70F558F42074183239CAE
:1010A000E700B707002083A6870F4147EFF0CFB0D6
:1010B000D840371601401C4393E717001CC3184063
:1010C0008357070093E717002310F70037470F00F7
:1010D0001307F72302C6B247636BF700B2478507D1
:1010E0003EC6D5BF3715000013054543C5B5832758
:1010F000C68093C707102326F680E9BFEFF24F930F
:101100007167938781CD1307072098C33747014044
:1011100013070780D8C3371701401307078098C704
:10112000D8C737070A00250798CB0D47D8CB1147FA
:1011300098CF1307200913840182D8CF1307000A20
:1011400098D35CC037160000930784002324F44032
:101150002326F4409306440085471305444A1307A9
:1011600000091306A6C98D452308F440232A04402C
:10117000232C0440232E044023200442EFF02F9B15
:101180005C401305C44A130700098C4F8146014691
:10119000EFF0EF9985679387C7401CC085679387F9
:1011A0008742232AF44AB7570140938707C023AEEA
:1011B000F1808146130700090146B145138541813D
:1011C000EFF0EF966FF00F89AA87850703C7F7FF47
:1011D0006DFF3385A7407D15828000000800024026
:1011E0001C0002403000024044000240580002400F
:1011F0006C00024080000240080402401C040240CF
:101200003004024044040240580402406C0402408E
:101210008004024090040240A0040240B004024056
:10122000C00402401B0000001C0000001D00000064
:101230001E0000001F000000200000002100000030
:1012400048000000490000004A0000004B00000078
:101250004C00000062000000630000006400000019
:10126000650000006600000067000000414842463B
:101270007265713D25754D487A3B2041504231469B
:101280007265713D25754D487A3B2041504232468A
:101290007265713D25754D487A0D00000000000013
:1012A000000000000000000000000000000000003E
:1012B000000000000000000000000000010000002D
:1012C000020000000300000004000000060000000F
:1012D00007000000080000000900000000000000F6
:1012E00000000000000000000000000001000000FD
:1012F00002000000030000000400000024000000C1
:1013000006000000080000000A0000000C000000B9
:101310000E00000010000000120000001400000089
:1013200016000000180000001A0000001C00000059
:101330000D0000001E00000020000000050000005D
:1013400019000000080000000A0000000C00000066
:101350000E00000010000000120000001400000049
:1013600016000000180000001A0000001C00000019
:101370001E00000020000000280000004E6F2052D8
:101380006561642050726F74656374696F6E0D00DF
:10139000526561642050726F74656374696F6E206A
:1013A000456E0D00436F6465203139324B42202B6E
:1013B0002052414D203132384B420D00436F64655D
:1013C000203232344B42202B2052414D20393620DE
:1013D0004B420D00436F6465203235364B42202B63
:1013E0002052414D203634204B420D00436F64653E
:1013F000203238384B42202B2052414D20333220AE
:101400004B420D000000000000000000620F0000D1
:10141000560F0000340F0000240F00002C0F0000B6
:101420004CFBFFFF00000000500F0000280F0000E1
:10143000300F00004372797374616C206F6B0D0084
:101440004372797374616C204641494C0D00000071
:1014500032303233303232365F30313231000000D8
:1014600056333037455642000D25532025530D0085
:04147000FC1000006C
:101474000000000000000000F00000000000000078
:1014840000000000F0000000000000000000000068
:10149400F00000000000000000000000F000000068
:1014A4000000000000000000F00000000000000048
:1014B40000000000F0000000000000000000000038
:1014C400F00000000000000000000000F000000038
:1014D4000000000000000000F00000000000000018
:1014E40000000000F0000000000000000000000008
:1014F400F00000000000000000000000F000000008
:101504000000000000000000F000000000000000E7
:1015140000000000F00000000000000000000000D7
:10152400F00000000000000000000000F0000000D7
:101534000000000000000000F000000000000000B7
:1015440000000000F00000000000000000000000A7
:1015540000000000000000002600260026005200C3
:101564002600520052002600B035000000000000A2
:00000001FF
