:100000006F10201413000000130000001300000004
:100010001300000013000000130000001300000094
:100020001300000013000000130000001300000084
:08003000130000007300100032
:10003800000000000000000084100000861000008E
:100048000000000088100000000000000000000010
:100058008A1000008C100000000000000000000062
:10006800D81400000000000000020000000000009A
:1000780092100000941000009610000098100000E4
:100088009A1000009C1000009E100000A0100000B4
:10009800A2100000A4100000A6100000A810000084
:1000A800AA100000AC100000B0060000B01000005C
:1000B800B2100000B4100000B6100000B810000024
:1000C800BA100000BC100000BE100000C0100000F4
:1000D800C2100000C4100000C6100000C8100000C4
:1000E800CA100000CC100000CE100000D010000094
:1000F800D2100000D4100000D6100000D810000064
:10010800DA100000DC100000DE100000E010000033
:10011800E2100000E4100000E6100000E810000003
:10012800EA100000EC100000EE100000F0100000D3
:10013800F2100000F4100000F6100000F8100000A3
:10014800FA100000FC100000FE1000000011000072
:10015800021100000411000006110000081100003F
:100168000A1100000C1100000E110000101100000F
:1001780012110000141100001611000018110000DF
:100188001A1100001C1100001E11000020110000AF
:10019800221100002411000026110000281100007F
:1001A8002A1100002C1100002E110000301100004F
:1001B800321100003411000036110000381100001F
:1001C8003A1100003C1100003E11000040110000EF
:1001D8000000000000000000000000000000000017
:1001E8000000000000000000000000000000000007
:0801F8000000000000000000FF
:10020000130181F806C216C41AC61EC822CA26CC1B
:100210002ACE2ED032D236D43AD63ED842DA46DC76
:100220004ADECEC0D2C2D6C4DAC6DEC8E2CAE6CC46
:10023000EACEEED0F2D2F6D4FAD6FED8F3220030CF
:1002400096DA9702002083A262ED23A02200F32514
:1002500010342EC09305000273A0458003A1818055
:10026000EF10B06817030020032343EB03210300C2
:10027000824273901234D652739002309240A2425E
:100280003243C2435244E244724582551256A2564A
:100290003257C2575258E25872598649164AA64AEE
:1002A000364BC64B564CE64C764D865D165EA65ECA
:1002B000365FC65F13018107730020301300000012
:1002C00013000000130000001300000013000000E2
:1002D00013000000130000001300000013000000D2
:1002E00013000000130000001300000013000000C2
:1002F00013000000130000001300000013000000B2
:1003000083A28180938202E073900234170100205F
:100310000321C1E0024182403243C2435244E244DD
:10032000724582551256A2563257C2575258E25859
:1003300072598649164AA64A364BC64B564CE64C6D
:10034000764D865D165EA65E365FC65FD652A1020A
:1003500073900230A24213018107828013000000D3
:100360001300000013000000130000001300000041
:100370001300000013000000130000001300000031
:100380001300000013000000130000001300000021
:100390001300000013000000130000001300000011
:1003A0001300000013000000130000001300000001
:1003B00013000000130000001300000013000000F1
:1003C00013000000130000001300000013000000E1
:1003D00013000000130000001300000013000000D1
:1003E00013000000130000001300000013000000C1
:1003F00013000000130000001300000013000000B1
:10040000F322003093F272FF130380781203B3E2F9
:100410006200711523205500130585FA10C12115BE
:10042000232005009302000063870200711523203A
:100430000500FD12D5BF71150CC1828000000000BF
:1004400000000000000000000000000000000000AC
:10045000000000000000000000000000000000009C
:10046000000000000000000000000000000000008C
:10047000000000000000000000000000000000007C
:10048000000000000000000000000000000000006C
:10049000000000000000000000000000000000005C
:1004A000000000000000000000000000000000004C
:1004B000000000000000000000000000000000003C
:1004C000000000000000000000000000000000002C
:1004D000000000000000000000000000000000001C
:1004E000000000000000397101436EC619A0397187
:1004F00041536AC866CA62CC5ECE19A039710153F5
:100500005AD056D252D44ED64AD826DA22DC06DE4B
:1005100033016140828241114AC026C222C406C60C
:100520008282B24D4101024D924C224CB24B4101AC
:10053000024B924A224AB249410102499244224462
:10054000B24041018280EFF21FFD8D670D64138779
:1005500007E2130444E2198C09848144138907E2F9
:1005600063938400D9BF93972400CA979C43850462
:100570008297FDB7AA870387070019C38507E5BFE0
:100580003385A7408280B71701401387078063191E
:10059000E500371702401C4F93E747001CCF8280CD
:1005A000138707C06318E500371702401C4F93E715
:1005B0008700EDB76318F500371702401C4F93E72B
:1005C0000701E9BF938707406318F500371702401A
:1005D0001C4F93E70702D9B7B727014093870780DD
:1005E000E31FF5FA371702401C4F93E707047DB766
:1005F0003797980013070768B7270240D447858AC2
:1006000089C67D1765FF09458280D8470545518B0E
:1006100065FF984B0145137707027DD7984B136709
:10062000070298CB82808D67139825009387C7A611
:10063000C2979C430CC15CC1B147B387F502B705B3
:10064000002093850500BE9590C1D4C198C58280D5
:10065000371702405C4B93E737005CCB14413147BE
:10066000B387E60237070020130707003E971C43B5
:1006700085CF8D67938747AB8A06BE969442034623
:10068000870037E700E0BA962380C64014418A0607
:10069000B6979043854693575600938707048A0779
:1006A000B396C600BA9794C35C4123A0070082802A
:1006B000B707024005678C43D8C3B707002093876C
:1006C0000700D85309C78857B181BD8902977300C5
:1006D0002030EFF25FE441112EC632C436C22A84C4
:1006E0005D3522469246B2450A069D47D18E63E2A9
:1006F000B70218408A05BD47B397B70093C7F7FF05
:10070000F98F1CC01C40B396B600DD8E14C04101A9
:100710002DB58A0558408115BD47B397B70093C7DB
:10072000F7FFF98F5CC05C40B396B600DD8E54C015
:10073000F9BFEFF25FDE41112EC632C436C22A8401
:100740009935371702401C4F22469246B24593E72F
:1007500017000A061CCF558E9D479366860063E2FC
:10076000B70218408A05BD47B397B70093C7F7FF94
:10077000F98F1CC01C40B396B600DD8E14C0410139
:100780006DBBE11558408A05BD47B397B70093C7C5
:10079000F7FFF98F5CC05C40B396B600DD8E54C0A5
:1007A000F9BFEFF25FD7B707002003A4078099676E
:1007B000938757AA1317040141836319F70237354A
:1007C00000001305C5C1512D935764018D8B094756
:1007D0006388E7020D47638AE7020547638DE700F8
:1007E00037350000130545C48D2D81BB373500001A
:1007F000130505C3C9BF373500001305C5C5EDB7DF
:1008000037350000130545C7C5B737350000130558
:10081000C5C8D9BFEFF23FD0372702409307000386
:100820005CC71C4BAA842E8493F707088DEF3727EB
:1008300002401C4B93F70720BDC7B7270240984BD7
:100840001367070198CB984B1367070498CB93174E
:100850000401C1832390F400613B0DE941802391A1
:100860008400793325A0996773900780B7066745A0
:100870009386361254C3B796EFCD9386B69A54C377
:100880009387870873900780A53355D1372402409A
:1008900085331C4893F7F7DF1CC8993B1C4893E746
:1008A00007081CC859B9996773900780B706674550
:1008B0009386361214C7B796EFCD9386B69A14C7AF
:1008C0009387870873900780253325D9C1B73707E9
:1008D0000020AA871305078003270780B705403F3C
:1008E000FD1593966701F98D93C7F7FFD58DFA072C
:1008F000DD8D6307B700EFF21FC2293F5D3535B9C3
:100900008280371702401C43C1664111D58F1CC33A
:10091000096702C613077732B7160240B247636B06
:10092000F7009C421396E70063400602B247850732
:100930003EC6EDB7B71602409C4241777D17F98F4E
:100940009CC20545410182800145EDBF3717024039
:100950001C43B70600014111D58F1CC3096702C6AD
:1009600013077732B7160240B247636BF7009C4219
:100970001396670063410602B24785073EC6EDB78E
:10098000B71602409C42370700FF7D17F98F9CC2C3
:100990000545410182800145EDBFB71702408843FC
:1009A0004581058982803717024003284700B70830
:1009B000C1FFFD18337818014A053365050189ED3B
:1009C000374702408327078093E707012320F780FA
:1009D000B7170240C8C3828085476398F500374740
:1009E000024083270780BD9BD5B7C1675D8D5C57EB
:1009F000C175C115ED8FD58FD18F5CD7D1BF37179A
:100A000002405C434111B7160240F19BC98F5CC3A1
:100A1000096702C613077732B247636BF700DC42FF
:100A200089838D8B638BA700B24785073EC6EDB7E0
:100A3000371702405C43F19B5CC34101828037174A
:100A400002405C43B7060020054689838D8B938660
:100A5000060F6385C70009466384C706B7177A0087
:100A6000938707209CC2371602405C42B7050020DE
:100A7000898313F7C7038D679387C7B3BA979843E2
:100A80009C428D669386C6B7B3D7E7003707002030
:100A9000232AF70E584250421983718B3697184318
:100AA00033D7E70023A4E50E13579600718BBA964F
:100AB0009842B3D7E700370700202326F70E82803D
:100AC0005C43C18313F6C7038D679387C7B9B29799
:100AD0008C435C431396F700635E06045C575057E3
:100AE0001315F600635F050250575857118393772B
:100AF000F70013871700B7177A0093870720B3D73B
:100B0000E702135766001376C7030D671307C7BDC7
:100B100032971843B387E7028583B387B70285838B
:100B200091B7BD8B37177A00850713070720B35796
:100B3000F702E5B7B747024003A70780418B11E7EB
:100B4000B7173D0093870790C9BFB7177A009387FF
:100B50000720E1B7EFF23F9CB7070020B70600205F
:100B600037060020B705002003A7C70E83A6860E10
:100B70000326460F83A5050FB7470F009387072469
:100B80003357F702373500001305C5AFB3D6F60269
:100B90003356F602B3D5F502C92445B2B7E700E0F3
:100BA00041572387E7402386E740B7F700E023A0BB
:100BB000070023A20700814694C70147D8C737071B
:100BC00000208325070F1307803E814633D6E502B8
:100BD0003D4790CBD4CB98C38280EFF23F92011176
:100BE000AA84480801442A89254333F8C502B3D8AA
:100BF000C5029377F80F636E030393870703E20739
:100C0000E1872300F5000504050563F2C502A2890A
:100C10009C4036C69C4363F4D902BA853AC4268503
:100C200082972247B24609C93145056111B2C6858E
:100C30006DBF93877703E1B78509D9BF7DD49C4009
:100C40007D14330789009C4383050700268582971E
:100C500075D5D9BFEFF23F894111AA84AE8732849E
:100C600093095002930A0003130AA002294B8385BB
:100C700007001389170081E99C402685DC43829791
:100C800041016FF01F8A638835019C409C43268593
:100C9000829741C5D5B703871700930B00026316EF
:100CA000570113892700930B000381462547050947
:100CB0008307F9FF138607FD1376F60F6369C700F4
:100CC00093178601E187B3866603BE96CDB7639618
:100CD0004701830704001104FDB71307E002639086
:100CE000E702254605098307F9FF138707FD1377F8
:100CF000F70FE379E6FE639447011104E5B71307A4
:100D00003006638AE708634EF7021307100463890D
:100D1000E70E6346F700638D3713CA8789BF130751
:100D200030056386E70813078005E398E7FE130C98
:100D300044005E8741460C402685453515FD62849A
:100D4000E9BF130730076384E706634FF702130711
:100D500040066386E70013079006E390E7FC130C58
:100D600044000040635E04009C4036C69305D002F8
:100D70009C4326858297E31105F0B24633048040F8
:100D80005E872946A2854DBF130750076385E70696
:100D90001307800759BF9C408305040026859C43A8
:100DA000930B44008297E31905EC5E84BDB7832C56
:100DB000040036C66685EFF0EFFBB2462A8C638EE0
:100DC0000C0083850C0091C99C4036C626859C4347
:100DD000850C8297B24665D545B5338C8641634410
:100DE000800111041DBF9C40DE8526859C437D1C2F
:100DF000829775D551B5130C44005E87294625BFEF
:100E0000032C8400832C0400032D4400931D8C01CB
:100E1000814B93DD8D4163C4AB013104FDBD634063
:100E20007003B3877C0183C507001307000389465D
:100E3000414626855D33E31105E4850BE9BFE302F6
:100E40000CFE9C40EE8526859C43829779D92DB572
:100E50009C40930550029C431DBD39712ED2AA853A
:100E60003735002032D413058536501006CE36D6DD
:100E70003AD83EDA42DC46DE32C6E93BF240216136
:100E8000828039712ED2AA853735002032D41305DD
:100E90008536501006CE36D63AD83EDA42DC46DEEB
:100EA00032C64D3BF24021618280832645400327B4
:100EB000054193074540958F6373F700BA87232A4E
:100EC000F5408DCB0327454A2306054054C78327A9
:100ED00045415CC31C41D44383D70600C207C1838C
:100EE00093F7F7FBC207C1832390F6001C4393E7F7
:100EF00017001CC382800327454A1C43F99B1CC36F
:100F0000832645418327054103274540958F369722
:100F10002328F540930645406379D7002322E54016
:100F200081EB85472306F540828013074500FDB716
:100F3000EFF26FDE9D3F6FF04FE0EFF2CFDD653FE8
:100F40006FF0AFDF032705419307F03F63EBE70244
:100F500083278540138717002324E5402380B700AB
:100F600003278540930745406366F70093074500D4
:100F70002324F5408327054185072328F5400145B3
:100F80008280314582808347C54091C7EFF2AFD858
:100F9000293F6FF08FDA82801C41B746014093866B
:100FA0000680D8439043631DD700B707002083A76E
:100FB000C70EB3D7C702C207C1832314F7008280CC
:100FC000B707002083A7870EEDB7EFF2CFD41C41FF
:100FD0002A843715014083D507018546014613054C
:100FE0000580EFF00FF51C408D46014683D50701C3
:100FF0008847EFF00FF41C40D843B7470140938770
:1010000007806313F706371702401C4F9166D58F90
:101010001CCF228551371C401305044ADC4323981A
:101020000700EFF0EFE21C400327444A8966DC43E7
:1010300091071CC71C40DC4F1CC385472306F440A6
:101040001C403147DC432396E7001C401307000C8B
:10105000DC43239AE7001C40D8438357C700D58F51
:101060002316F7006FF06FCDB74700409387074016
:10107000E311F7FA371702405C4FB7060200D58F2D
:101080005CCF41BF01A001A001A001A001A001A06F
:1010900001A001A001A001A001A001A001A001A048
:1010A00001A001A001A001A001A001A001A001A038
:1010B00001A001A001A001A001A001A001A001A028
:1010C00001A001A001A001A001A001A001A001A018
:1010D00001A001A001A001A001A001A001A001A008
:1010E00001A001A001A001A001A001A001A001A0F8
:1010F00001A001A001A001A001A001A001A001A0E8
:1011000001A001A001A001A001A001A001A001A0D7
:1011100001A001A001A001A001A001A001A001A0C7
:1011200001A001A001A001A001A001A001A001A0B7
:1011300001A001A001A001A001A001A001A001A0A7
:1011400001A097F1FF1F9381617917F1012013012D
:1011500061EB17250000130525CD97F5FF1F93853B
:1011600065EA1386018163FAC5008322050023A086
:10117000550011059105E3EAC5FE17F5FF1F13059C
:10118000E5F6972500209385256C6377B50023202D
:1011900005001105E36DB5FEFD42739002BCFD42F2
:1011A00073904280B78200009382028073A0023065
:1011B00097F2FFFF938282E893E2320073905230FD
:1011C000EFF06FB8971200009382C26473901234EC
:1011D00073002030B7070020938707119843636F8F
:1011E000A702D043B386C7006316D50054413E859D
:1011F000B296D4C35041B306C500631CD700B706EE
:10120000002083A6860F6306D70054431843B29686
:1012100054C118C16303F50088C38280BA877DBFBB
:10122000EFF2CFAD41112AC6EF007033B7060020B0
:1012300083A7860F370600209386860F1306C60FF6
:101240003245A1EF370700209307071793F5F70002
:101250001307071781C51387F700419BB7050020C7
:101260009385051123A2050098C18D65C115AE9720
:10127000C19B23A2070023A00700B385E7409CC2BF
:101280001CC3B707002023A2B710B707002023A074
:10129000B710B70700804CC31CC2032A0600B377FF
:1012A000AA0085E39307F5FF3957636CF7009307AE
:1012B000050113F7F7003DCF13F707FF410763EA76
:1012C000E706814489A022872E8459A058C15CC0BA
:1012D00011375840B7060020938646109042B30756
:1012E000E94023A0F90063F3C7009CC2B7070020C0
:1012F0003367EA009387871058C09843C1042320BE
:101300000400050798C3EF00D04193F7F400C1CB68
:10131000A167938707807390073037360000373511
:101320000000130646CA930500111305C5CC913E73
:1013300001A0BA8737070020032907109309071077
:10134000E361F9F837070020032407111307071199
:1013500050406374F6000C40BDF59442E38386F67A
:101360001440044314C33307F64093060002E3F22B
:10137000E6F63305F4009376F500A9DAA1679387C2
:1013800007807390073037360000373500001306AA
:1013900046CA9305F00C1305C5CCE53401A026859B
:1013A00041016FF0EF9845C1EFF2EF96B7070020CB
:1013B000032745FF83A7C70F2A84B376F70095E27A
:1013C000A167938707807390073037360000373561
:1013D0000000130646CA930540121305C5CC5534C8
:1013E00001A0832605FF95C2A167938707807390AC
:1013F00007303736000037350000130646CA93051C
:1014000050121305C5CCB53C01A093C7F7FFF98F67
:10141000232AF5FEEF00B014B707002093870710CA
:101420009443032744FF130504FF369798C35D33A5
:10143000B70700209387C7109843050798C3EF00AC
:10144000502E6FF08F8F8280EFF2EF8C411102C629
:10145000F32750303EC6B2470D478D8B6383E702BA
:10146000A1679387078073900730373600003735C0
:101470000000130606CF9305600B1305C5CC11348D
:1014800001A0B707022093870700BD8B95C3A16712
:101490009387078073900730373600003735000098
:1014A000130606CF9305B00B1305C5CCD93A01A09E
:1014B000EFF0CFEEB7E700E0056723A0E710116774
:1014C00023A0E710B707002023AC070CEFE05FE391
:1014D000014541016FF06F8673110134A167938755
:1014E000078073900730B7F700E023A20700EF00F2
:1014F000B00811C5B7E700E0116723A0E720A16796
:1015000093878788739007307311013473002030FC
:10151000A1679387078073900730B70700209387F0
:10152000870D9843050798C382803707002013076B
:10153000870D1C438DE7EFE21FFEA16793870780AD
:10154000739007303736000037350000130606CF9A
:10155000930520101305C5CCEFF0BF9201A0FD1735
:101560001CC391E7A16793878788739007308280B7
:10157000930785007D575CC118C55CC51CC9232035
:10158000050082802328050082809841FD5693073C
:101590008500631ED7001C49D843D8C10CC79CC521
:1015A000CCC31C4188C985071CC18280B687D4433F
:1015B0009042E37DC7FECDB7544118451C4998C6FB
:1015C00054C3D4436393A600D8C39843232805008B
:1015D0007D1798C388438280EFE2FFF341112AC64A
:1015E000053F3245005D91371335140041016FE02E
:1015F000DFF4304115C2EFE21FF258451445AA87C7
:10160000329758C56364D700184158C52E85CC471A
:10161000EF10603A6FE07FF28280EFE2DFEF2A8422
:10162000C53D8344540413094402E204E184634544
:101630009002FD57A302F404CD3DD93D83444404F8
:1016400013090401E204E18463449002FD5723027C
:10165000F404E13D6FE07FEE5C50E1DF4A85EF008E
:10166000503E19C1EF00905AFD14E204E184C1B765
:101670001C48E9DF4A85EF00D03C19C1EF00105942
:10168000FD14E204E184C9B7EFE2FFE841111DE176
:10169000A16793870780739007303736000037358E
:1016A0000000130686D1930500111305C5CCEFF099
:1016B0004FFD01A05C5D2EC62A84BDC33841B3B77F
:1016C000E702B9EFB1353040585C1440232C0402D6
:1016D000B307E602B24554C03387F600918FB69740
:1016E0005CC4FD572302F40418C4A302F40495E17A
:1016F0001C4899CB13050401EF00B03411C5B7E7BE
:1017000000E0116723A0E7200D35054541016FE09A
:10171000DFE213050401A93D13054402913DEDB735
:10172000A1679387078073900730373600003735FD
:101730000000130686D1930550141305C5CCEFF0B5
:101740004FF401A0EFE23FDD411121C1B3B7A50283
:10175000AA8485EF3305B502930770FB63E7A70200
:10176000130585042EC66D3C2A8401CDB245AA8797
:1017700099C1930785042CC01CC044DC8545228593
:101780002137228541016FE05FDBA16793870780E6
:10179000739007303736000037350000130686D1C6
:1017A0009305601C1305C5CCEFF0AFED01A0EFE28F
:1017B0001FD4011132C61DE1A16793870780739082
:1017C00007303736000037350000130686D1930501
:1017D00010551305C5CCEFF0CFEA01A02A84AE89DD
:1017E0008DE53C419DC3A1679387078073900730C7
:1017F0003736000037350000130686D19305505563
:101800001305C5CCEFF0EFE701A0EF00F04015E5C0
:10181000B247014985C7A167938707807390073056
:101820003736000037350000130686D19305A055E2
:101830001305C5CCEFF0EFE401A001497D5A930AEE
:10184000440237EB00E0916B95A0B24781E7F13994
:10185000014559A0631509002808EF00502DF1310A
:10186000FD297D3183474404E207E1876394470102
:101870002302040483475404E207E1876394470189
:10188000A30204045D316C002808EF00B02B21EDA9
:101890002285993329C5B2455685EF00B00E2285C1
:1018A000AD3B412519E123207B2105499531045C9D
:1018B000C9DCCE852285FD142D3B04DC1C4899CB68
:1018C00013050401EF00F01711C5B7E700E0116739
:1018D00023A0E7209939054505616FE0DFC4228523
:1018E0002D3B8125D9B722850D3B252D2285ED3154
:1018F0004DDDB9BF15E5EFE21FC2A16793870780F1
:1019000073900730373600008565373500001306C1
:1019100086D1938585AC1305C5CCEFF08FD601A099
:101920009DCD3736002093060617814701471306E1
:101930000617214883A846006398A800931737002C
:10194000B2978CC3C8C321A891E783A8060063930C
:101950000800B6870507A106E31E07FDFDF3828098
:10196000EFE27FBB41112A842EC632C4553683472D
:1019700044047D572246E207E187B2456394E700BD
:1019800023020404834754047D57E207E1876394EC
:10199000E700A302040432C62EC4413E1C5CA245EB
:1019A000324689E713054402EF0050022285B53123
:1019B00041016FE09FB8370700201307C7111C4390
:1019C0009443B70700209387C71381E67D5798C3D8
:1019D0008280184358471843DDBFEFE23FB2370912
:1019E0000020B70700209304891183A9C7142A8413
:1019F0009C4088404111A388070411052EC66D3E06
:101A00007D5793078911B245631CE40295C9B73726
:101A10000020938787319440D84398C6104794405C
:101A2000D0C694401047910654C29440910614C702
:101A300098405CCB9843050798C341016FE05FAFC6
:101A400098434E9440C3637A34013707002003253E
:101A500007128C439105153ECDB7370700200325AB
:101A6000C7118C4391051536B70700209387C7131C
:101A70009843E374E4FC80C3C9B7EFE23FA837346E
:101A80000020B70900201304C432370A00209384D1
:101A900089129C40EDDFEFF0BFA75C4403A9C700AB
:101AA00013054900113E13074A121C43FD171CC3BE
:101AB0009C40FD179CC0EFF05FA703250903EFF0E2
:101AC0009F8E4A85EFF03F8ED9B7EFE25FA21319E0
:101AD0002600AA8A4A852E8A368BBA8BBE89EFF0F9
:101AE0002FF41DC1AA8413054005EFF06FF32A847B
:101AF00009C904D98147C146631A0A00230A0502AD
:101B000025A02685EFF03F8A7D5565A23307FA00B0
:101B1000030707003306F400230AE60201C785071E
:101B2000E396D7FEA3010404B94763F47703A167E2
:101B300093870780739007303736000037350000F1
:101B40001306C6D2930570391305C5CCEFF06FB3F9
:101B500001A0130A4400528523267403232274052E
:101B600023240404EFF01FA213058401EFF09FA1CA
:101B70003D471305C9FF33077741269500C818CCA8
:101B800040D023060404A306040423070404A30787
:101B9000040423080404A30804045A86D685419942
:101BA000EFE01F8608C06384090023A08900EFF0DE
:101BB0003F96B7070020938747129843B704002049
:101BC000B7390020050798C31387841118439384FD
:101BD00084111389091B6310070E80C09843854741
:101BE0006316F7069389091B930AC9124E85D1091A
:101BF000EFF01F98E39C3AFF37350020930AC52D7C
:101C00001305C52DEFF0DF96373500209309052F1A
:101C10001305052FEFF0DF9537350020130545300C
:101C2000EFF01F95373500201305C532EFF05F94B4
:101C30003735002013058531EFF09F93B70700205B
:101C400023AE5711B707002023A03713B707002092
:101C5000938707139843050798C337070020130796
:101C600047135C54144363F3F6001CC35147B38716
:101C7000E702CA97D843144718C454C4144723A290
:101C800046012324470198435CC8050798C3EFF039
:101C9000DF89B707002083A78714054599CB9C40AF
:101CA000D8575C546377F700B7E700E0116723A0CB
:101CB000E7206FE05F87B707002083A78714D9F775
:101CC0009C40D8575C54E3E3E7F880C041B7EFE2AB
:101CD0009F84B7070020B7350000372500009387A1
:101CE00087130147814613060010938505D4130519
:101CF000A5A7E13B0544631E8502EF00D020631ACF
:101D00008502A1679387078073900730B70700208B
:101D10007D5723AEE712B707002023A4A714B70707
:101D2000002023A60714EFF02FF283A741806FE075
:101D3000DF80FD57E31BF5FEA16793870780739053
:101D40000730373600008565373500001306C6D2E8
:101D5000938505841305C5CCEFF0AF9201A0B707BA
:101D600000209387C7129843050798C38280B7075E
:101D7000002003A5C7148280B707002083A7C712DD
:101D800063980718EFE22FF9B70700209387C7146D
:101D90008043050480C339E8B70700209387C71143
:101DA0009843184305C7A16793870780739007304E
:101DB000373600008565373500001306C6D2938597
:101DC00075AC1305C5CCEFF0CF8B01A03707002011
:101DD000130707129443104390C3B707002014C39E
:101DE000938707149843050798C3F13637060020F8
:101DF0009307C6139C4337370020B705002013060E
:101E0000C6131307071B9385851101456375F402FB
:101E10009C41D146DC57B387D7023E97184385478C
:101E200063F3E7000545B707002083A7071591C3B3
:101E300005456FE08FF0370E0020B70E0020514FA0
:101E40009307CE119443944281E6FD571CC2C9B753
:101E50009C43DC47DC47D4436374D40014C24DBFB9
:101E600083A8870003A8C700D44B1383470023A48B
:101E700008012322180183A846006394680023A266
:101E8000060103A8060023AA07007D1823A0060167
:101E9000945795CA03A8C70183A8070283AF4600D9
:101EA0002324180183A8070223A2080113888701AD
:101EB00063940F0123A2160103A8060023A40702BE
:101EC0007D1823A0060193864E1303A8C70283A89A
:101ED000060063F4080123A00601B306E803BA96DE
:101EE00083A8460083AF880023A4170123A6F70127
:101EF00083AF880023A26F0023A46800D4CB9C4248
:101F000085079CC29C41DC57E36CF8F205450DBF88
:101F1000B70700209387471498430145050798C3E6
:101F20008280EFE2AFDD370400201304C4121C40AE
:101F3000411185E7A1679387078073900730373693
:101F400000008565373500001306C6D29385358BB2
:101F50001305C5CCEFE0FFF201A0EFF06FDB1C40F2
:101F6000FD171CC01C4089CB01452AC6EFF0EFDBF2
:101F7000324541016FE0CFDBB707002083A747124E
:101F8000E5D7B736002037350020814793864630A5
:101F9000370F00201305051BD14837030020370EEB
:101FA0000020854E59A8DC46DC47CC4F905398570B
:101FB00090C503A807022322B80003284700938591
:101FC00087016313B80050C3104323A407027D1692
:101FD00010C38C47D047D84B1388470090C54CC2DC
:101FE0004C436393050150C3104323AA07007D1699
:101FF00010C313074F13D0570C4363F3C50010C32E
:10200000330716032A974C4383AF85008CC723A65A
:10201000F70183AF850023A20F0123A405010C4320
:10202000D8CB85050CC31307831118435857636633
:10203000E60013070E152320D70198422DF799C308
:10204000EFF07F97B70700201387471404431384EA
:10205000471491CC370900208549393B09C59307BE
:10206000091523A03701FD14EDF823200400B7075C
:10207000002083A70715E38907EEB7E700E01167A3
:1020800023A0E7200545D5B519E5B7E700E01167BE
:1020900023A0E7208280EFE20FC8B707002083A7C4
:1020A000C71241119DC3A1679387078073900730C2
:1020B00037360000373500001306C6D2930590541A
:1020C0001305C5CCEFE0FFDB01A02AC64939324534
:1020D0008145EFF09F90B13511E5B7E700E011675A
:1020E00023A0E72041016FE04FC5B707002003A7F9
:1020F000C712B70700209387071501C7054798C384
:10210000828023A00700B7070020138747131843D6
:1021100013864713B73700209387071B5148B30630
:102120000703B385D700884115C5C841A106BE96EF
:102130004841C8C16314D5005441D4C1D146B30647
:10214000D702B697DC43D447B707002023ACD7109B
:1021500018C2828015E7EFE20FBCA1679387078062
:102160007390073037360000856537350000130659
:10217000C6D2938525C01305C5CCEFE09FD001A042
:102180007D1771BFEFE22FB905E5A167938707803F
:102190007390073037360000856537350000130629
:1021A000C6D29385C5C11305C5CCEFE09FCD01A074
:1021B000B70700202E8483A58711E105EFF0EFBC5F
:1021C00085452285EFF07F816FE02FB7EFE2AFB456
:1021D0002A8705E5A1679387078073900730373614
:1021E00000008565373500001306C6D2938525C5E6
:1021F0001305C5CCEFE0FFC801A0B7070020938707
:10220000871154432E858C4303A88600D4CD8C437C
:1022100023A0050303A807008C46610823A205013B
:1022200003A807009C43610823A4060198D71C4318
:1022300085071CC311C27D55B285EFF00FFA6FE020
:10224000CFAF5C45DC4795E7EFE2EFACA167938742
:1022500007807390073037360000856537350000FA
:102260001306C6D2938525C81305C5CCEFE07FC100
:1022700001A0D04F945398579385870114C6D0C2BC
:1022800050436313B60054C3144323A40702FD163E
:1022900014C3370700200327C712D45725EF8C47F4
:1022A000D047D84B90C5D04748434CC29385470090
:1022B0006313B50050C3104323AA07007D1610C353
:1022C000370700201307471310436373D60014C366
:1022D00051473386E602373700201307071B329732
:1022E0005043084690C7C8C708464CC10CC6D8CB57
:1022F0001C43014585071CC3B707002083A787112E
:10230000DC5763F8D700B7070020054723A8E71478
:102310000545828037370020130747305043084671
:10232000D0CF88D308464CC10CC698D7D1B7B707D1
:10233000002083A707141CC1B707002083A7C71478
:102340005CC18280EFE22F9D411105E5A167938773
:1023500007807390073037360000856537350000F9
:102360001306C6D29385D5CF1305C5CCEFE07FB158
:1023700001A085E5A1679387078073900730373602
:1023800000008565373500001306C6D29385E5CF7A
:102390001305C5CCEFE0FFAE01A02EC62AC4EFF0B6
:1023A0002F9737070020B70700201307871183A650
:1023B000C7141C432245B24583C7170599CB1C435C
:1023C000A38807040544EFF04F96228541016FE092
:1023D000CF969C417D570144E387E7FE37060020F6
:1023E000032606140328050058416307C80063E567
:1023F000E60023A00500F9B73386E640E37BF6FE4E
:10240000958FBA979CC12537014475BFB707002047
:10241000054723A8E7148280B707002083A7871405
:10242000054581CBB707002003A5C712133515005A
:1024300006058280EFE22F8E37040020EFF04F8DEB
:10244000130404161C40B1E7373500201309053486
:1024500013050534EFF0CF9137350020930445354F
:1024600013054535EFF0CF90B707002023AA2715B5
:102470000146B7070020C145114523AC9714EFF082
:102480006FAC08C019C5B73500009385C5D6EFF00D
:102490006FC6EFF08F896FE04F8AEFE2CF874CC1B4
:1024A00008C9AA876362B602184D158E0545637B7D
:1024B000E60093854700B707002003A58715EFF0D6
:1024C000CF8C01456FE06F876375D6000545E3FB50
:1024D000D5FE93854700B707002003A54715C5B76C
:1024E000EFE26F832A84AE8432890C4CA6864A863A
:1024F000A69522855D3719E16FE02F841C4C22855B
:10250000BE941C508297D5B7EFE2EF80B70700204A
:1025100083A747154111AA84DC472EC6C04713057F
:102520004400EFF06F8983474402324613F74700B7
:1025300011CBA68522856D371C50228582974101DB
:102540006FD0BFFFF99B2302F402FDB7EFD2BFFCAF
:10255000370400209306441598421C4391EBB707BB
:10256000002093878715904398C390C26FD0FFFCDB
:102570005C47FD558843493FF1BFEFD25FF70D69D6
:102580004111B70A0020B7090020370B0020B70B14
:102590000020130989D483A74A15984329CBDC4727
:1025A000814C03AC0700EFF08FFBEFF04FFC83A7EB
:1025B000C9152A849384C915130A0B16636CF50296
:1025C00088C0638F0C0283A78B15904313361600C7
:1025D00003250A00B3058C40EFF08FB8EFF07F942D
:1025E00011EDB7E700E0116723A0E72001A8854CB3
:1025F000014C55BFA13F80C0EFF0BF92214C05A018
:102600000146E36785FDEFF0DF91A2856285ED3D30
:10261000F5B79247B2458297824763DD07000325ED
:102620000A0001468A85EFF08F9835D5824722450A
:10263000E3C107FE22445C4895E3EFF04FF39C4072
:10264000AA8C6373F5001937824723A09401FD1704
:10265000E367FCFC8A07CA979C4382871305440002
:10266000EFE09FF5D9BF834744020C4C924693E7B5
:1026700017002302F4026686B6952285393D45D1BE
:102680008347440213F7470019CB1C4C92456686DA
:102690002285BE95B1351C502285829749B7F99B9A
:1026A0002302F402CDBF83474402F99B2302F402C4
:1026B000BDB783474402924593E717002302F40213
:1026C0000CCC9DE1A1679387078073900730373664
:1026D000000037350000130646D7930590351305E3
:1026E000C5CCEFE00FFA01A0E6866686E695228566
:1026F0006D3335B78347440213F727005DF7228512
:10270000EFE07FCA29BFEFD21FE12D33B7070020CA
:1027100083A707169DE3A16793870780739007300F
:102720003736000037350000130646D79305901161
:102730001305C5CCEFE0EFF401A0B7070020B735D3
:102740000000372500009387471639478146130656
:1027500000109385C5D81305A557EFF00FB745DDD9
:102760006FD0BFDD014582800145828001458280B6
:1027700001458280EFD23FDAB734000037140140C0
:10278000138544DCEFE06FED8327C4801305801FC1
:1027900093C707102326F480EFF01F8FD5B7EFD231
:1027A0009FD7056437390000B71401401304048033
:1027B0001305C9DCEFE06FEA83A7C4801305703E00
:1027C000A18F23A6F480EFF03F8CDDB7397132D4AE
:1027D000301006CE36D63AD83EDA42DC46DE32C675
:1027E000EFE04FC7F240216182801305C5B4F9BF05
:1027F000EFD27FD21105EFE00FF96FD01FD4EFD2E7
:102800009FD193F5F50F1105EFE0CFF36FD0FFD215
:10281000EFD27FD0EFE0EF8E09ED8146014689458A
:102820002945EFE04F98EFE06F9201E50945EFE0B1
:102830000F9DEFE0CFA0373500201305C536EFE040
:10284000CFF837360000B7350000373500001306E3
:1028500006DF938505E0130585E0EFE00FE0EFE08C
:102860006FAFEFE08F932DED37350000130505DED8
:10287000EFE0AFDEEFD0FFF20145EFE04F85371418
:10288000014085460146A14513050480EFD07FE451
:1028900085460146AD4513050480EFD09FE3B7356B
:1028A00000003725000081471547814613060010B8
:1028B000938505E11305E579EFF02FA1B735000009
:1028C0003725000081471547814613060010938580
:1028D00085E113054577EFF04F9FEFF04FBF01A063
:1028E00037350000130545DD61B7EFD2DFC2B747CA
:1028F00000207167938707821307072098C3374723
:10290000014013070780D8C337170140130707801A
:1029100098C7D8C737070A00250798CB0D47D8CBEB
:10292000114798CF37340020130720091304843649
:10293000D8CF1307000A98D35CC03716000093075E
:1029400084002324F4402326F44093064400854762
:102950001305444A130700091306A6F38D452308FF
:10296000F440232A0440232C0440232E0440232037
:102970000442EFD05FCB5C401305C44A1307000943
:102980008C4F81460146EFD01FCA8D679387C7D908
:102990001CC0370500208D67938787DB130700096C
:1029A00081460146B14513058516232AF44AEFD026
:1029B0009FC76FD09FB8B3C7A5008D8B3307C500E5
:1029C00081E78D4763EEC700AA876370E50A83C677
:1029D000050085078505A38FD7FEE3EAE7FE828021
:1029E00093763500AA8791CA83C6050085078505B9
:1029F000A38FD7FE93F63700FDB79376C7FF1386F4
:102A000006FE63F0C70683A3050083A2450083AFDB
:102A1000850003AFC50083AE050103AE450103A3E6
:102A2000850183A8C5019385450223A0770003A8EB
:102A3000C5FF23A2570023A4F70123A6E70123A87B
:102A4000D70123AAC70123AC670023AE17019387E0
:102A5000470223AE07FF75B790419107910523AE5A
:102A6000C7FEE3EBD7FEE3E4E7F68280080002400E
:102A70001C00024030000240440002405800024066
:102A80006C00024080000240080402401C04024026
:102A90003004024044040240580402406C040240E6
:102AA0008004024090040240A0040240B0040240AE
:102AB000C00402401B0000001C0000001D000000BC
:102AC0001E0000001F000000200000002100000088
:102AD00048000000490000004A0000004B000000D0
:102AE0004C00000062000000630000006400000071
:102AF0006500000066000000670000005379734322
:102B00006C6B3D25754D487A3B20414842467265C5
:102B1000713D25754D487A3B2041504231467265E2
:102B2000713D25754D487A3B2041504232467265D1
:102B3000713D25754D487A0D000000000000000031
:102B40000000000000000000000000000000000085
:102B50000000000000000000000000000100000074
:102B60000200000003000000040000000600000056
:102B7000070000000800000009000000000000003D
:102B80000000000000000000000000000100000044
:102B90000200000003000000040000002400000008
:102BA00006000000080000000A0000000C00000001
:102BB0000E000000100000001200000014000000D1
:102BC00016000000180000001A0000001C000000A1
:102BD0000D0000001E0000002000000005000000A5
:102BE00019000000080000000A0000000C000000AE
:102BF0000E00000010000000120000001400000091
:102C000016000000180000001A0000001C00000060
:102C10001E00000020000000280000004E6F20521F
:102C20006561642050726F74656374696F6E0D0026
:102C3000526561642050726F74656374696F6E20B1
:102C4000456E0D00436F6465203139324B42202BB5
:102C50002052414D203132384B420D00436F6465A4
:102C6000203232344B42202B2052414D2039362025
:102C70004B420D00436F6465203235364B42202BAA
:102C80002052414D203634204B420D00436F646585
:102C9000203238384B42202B2052414D20333220F5
:102CA0004B420D002E2E2F4672656552544F532F06
:102CB000706F727461626C652F4D656D4D616E67EA
:102CC0002F686561705F342E6300000065727220AA
:102CD0006174206C696E65202564206F66206669CA
:102CE0006C6520222573222E200D0A200000000092
:102CF0002E2E2F4672656552544F532F706F72748B
:102D000061626C652F4743432F524953432D562F21
:102D1000706F72742E6300002E2E2F4672656552FE
:102D2000544F532F71756575652E63002E2E2F46F7
:102D300072656552544F532F7461736B732E630029
:102D400049444C450000000066260000662600004D
:102D5000A6260000B2260000F42600006626000029
:102D600066260000A6260000B2260000546D7251AF
:102D7000000000002E2E2F4672656552544F532FCF
:102D800074696D6572732E6300000000546D7220CB
:102D9000537663000000000000000000FE270000E2
:102DA000F0270000CC270000642700006C270000FB
:102DB0004CFBFFFF00000000EA270000682700002E
:102DC000702700007461736B310D0A007461736BBE
:102DD000320D0A004372797374616C206F6B0D00C1
:102DE0004372797374616C204641494C0D000000B8
:102DF00032303233303232365F3138343600000010
:102E000056333037455642000D25532025530D00CB
:102E10007461736B320000007461736B31000000E9
:042E2000EA2800009C
:102E24000000000000000000F000000000000000AE
:102E340000000000F000000000000000000000009E
:102E4400F00000000000000000000000F00000009E
:102E54000000000000000000F0000000000000007E
:102E640000000000F000000000000000000000006E
:102E7400F00000000000000000000000F00000006E
:102E84000000000000000000F0000000000000004E
:102E940000000000F000000000000000000000003E
:102EA400F00000000000000000000000F00000003E
:102EB4000000000000000000F0000000000000001E
:102EC40000000000F000000000000000000000000E
:102ED400F00000000000000000000000F00000000E
:102EE4000000000000000000F000000000000000EE
:102EF40000000000F0000000AAAAAAAA0E00000028
:082F04000000022000000000A3
:00000001FF
