:100000006F00D04F13000000130000001300000029
:100010001300000013000000130000001300000094
:100020001300000013000000130000001300000084
:08003000130000007300100032
:1000380000000000000000003E0C0000400C000022
:1000480000000000420C000000000000000000005A
:10005800440C0000460C00000000000000000000F6
:10006800480C0000000000004A0C000000000000DE
:100078004C0C00004E0C0000500C0000520C00000C
:10008800540C0000560C0000580C00005A0C0000DC
:100098005C0C00005E0C0000600C0000620C0000AC
:1000A800640C0000660C0000AA0300006A0C000043
:1000B8006C0C00006E0C0000700C0000720C00004C
:1000C800740C0000760C0000780C00007A0C00001C
:1000D8007C0C00007E0C0000800C0000820C0000EC
:1000E800840C0000860C0000880C00008A0C0000BC
:1000F8008C0C00008E0C0000900C0000920C00008C
:10010800940C0000960C0000980C00009A0C00005B
:100118009C0C00009E0C0000A00C0000A20C00002B
:10012800A40C0000A60C0000A80C0000AA0C0000FB
:10013800AC0C0000AE0C0000B00C0000B20C0000CB
:10014800B40C0000B60C0000B80C0000BA0C00009B
:10015800BC0C0000BE0C0000C00C0000C20C00006B
:10016800C40C0000C60C0000C80C0000CA0C00003B
:10017800CC0C0000CE0C0000D00C0000D20C00000B
:10018800D40C0000D60C0000D80C0000DA0C0000DB
:10019800DC0C0000DE0C0000E00C0000E20C0000AB
:1001A800E40C0000E60C0000E80C0000EA0C00007B
:1001B800EC0C0000EE0C0000F00C0000F20C00004B
:1001C800F40C0000F60C0000F80C0000FA0C00001B
:1001D8000000000000000000000000000000000017
:1001E8000000000000000000000000000000000007
:0801F8000000000000000000FF
:10020000397101436EC619A0397141536AC866CA73
:1002100062CC5ECE19A0397101535AD056D252D455
:100220004ED64AD826DA22DC06DE330161408282CD
:1002300041114AC026C222C406C68282B24D410183
:10024000024D924C224CB24B4101024B924A224A3F
:10025000B2494101024992442244B24041018280A4
:10026000EFF21FFD856705641387072413044424F8
:10027000198C098481441389072463938400D9BFAE
:1002800093972400CA979C4385048297FDB7B717BC
:100290000140138707806319E500371702401C4FA0
:1002A00093E747001CCF8280138707C06318E500DF
:1002B000371702401C4F93E78700EDB76318F5002E
:1002C000371702401C4F93E70701E9BF93870740A8
:1002D0006318F500371702401C4F93E70702D9B7A0
:1002E000B727014093870780E31FF5FA37170240CD
:1002F0001C4F93E707047DB7856713982500938704
:100300004703C2979C430CC15CC1B147B387F50258
:10031000B705002093850500BE9590C1D4C198C54E
:100320008280371702405C4B93E737005CCB144167
:100330003147B387E60237070020130707003E97CF
:100340001C4385CF85679387C7078A06BE9694426C
:100350000346870037E700E0BA962380C640144181
:100360008A06B697904385469357560093870704AD
:100370008A07B396C600BA9794C35C4123A00700CE
:100380008280EFF2FFEA41112A842EC632C436C2BF
:100390003AC0413F5C40B245224692468CC7024774
:1003A000D0C794C3D8C3410175B5B70702400567EC
:1003B0008C43D8C3B707002093870700D85309C7D9
:1003C0008857B181BD890297730020301C41B73630
:1003D0000140138706C0639BE700B71602409C4E9E
:1003E000056713070780D98F9CCE828037070040AE
:1003F0006399E700371702405C4F93E717005CCF23
:100400008280130707406398E700371702405C4F6C
:1004100093E72700EDB7371700401306078063986E
:10042000C700371702405C4F93E74700C9BF130668
:1004300007C06398C700371702405C4F93E78700F7
:100440007DBF6398E700371702405C4F93E70701D1
:100450007DB7130707406398E700371702405C4FEA
:1004600093E7070269BF938606406399D700371761
:1004700002401C4F8966D58F1CCF828037570140C0
:10048000930607C06398D700371702401C4FB70682
:100490000800D5B7E393E7FE371702401C4FB706B5
:1004A0001000D1BFEFF2DFD841112EC632C436C2E0
:1004B0002A84F13B22469246B2450A069D47D18ED8
:1004C00063E2B70218408A05BD47B397B70093C7E8
:1004D000F7FFF98F1CC01C40B396B600DD8E14C028
:1004E00041018DBB8A0558408115BD47B397B700C0
:1004F00093C7F7FFF98F5CC05C40B396B600DD8E02
:1005000054C0F9BFEFF2DFD241112EC632C436C259
:100510002A84B53B371702401C4F22469246B2450B
:1005200093E717000A061CCF558E9D4793668600F9
:1005300063E2B70218408A05BD47B397B70093C777
:10054000F7FFF98F1CC01C40B396B600DD8E14C0B7
:10055000410109B3E11558408A05BD47B397B7007B
:1005600093C7F7FFF98F5CC05C40B396B600DD8E91
:1005700054C0F9BF371702401C43C1664111D58FE3
:100580001CC3096702C613077732B7160240B24789
:10059000636BF7009C421396E70063400602B24784
:1005A00085073EC6EDB7B71602409C4241777D17DE
:1005B000F98F9CC20545410182800145EDBF371787
:1005C00002401C43B70600014111D58F1CC30967C7
:1005D00002C613077732B7160240B247636BF700C3
:1005E0009C421396670063410602B24785073EC6E8
:1005F000EDB7B71602409C42370700FF7D17F98F11
:100600009CC20545410182800145EDBFB7170240FC
:1006100088434581058982803717024003284700B7
:10062000B708C1FFFD18337818014A053365050185
:1006300089ED374702408327078093E7070123208E
:10064000F780B7170240C8C3828085476398F500DA
:100650003747024083270780BD9BD5B7C1675D8DB3
:100660005C57C175C115ED8FD58FD18F5CD7D1BFC8
:10067000371702405C434111B7160240F19BC98F06
:100680005CC3096702C613077732B247636BF70092
:10069000DC4289838D8B638BA700B24785073EC6FA
:1006A000EDB7371702405C43F19B5CC34101828088
:1006B000371702405C43894689838D8B639FD70C33
:1006C0005C43C18393F6C703856793874715B69745
:1006D00090435C439396F70063D1060A5C575457E6
:1006E0009395F60063D2050854575857B7177A0008
:1006F0009387072011833D8B0507B3D7E70213D7F4
:1007000066009376C70305671307471936971843A2
:10071000B387E7028583B387C70285833716024014
:10072000584209839376C70305671307470F369727
:100730001843856693864613B3D7E70023A8F18054
:10074000584250421983718B3697184333D7E700CC
:1007500023A4E18013579600718BBA969842B3D7C1
:10076000E70023A6F1808280BD8B37177A008507CA
:1007700013070720B357F70279BFB747024003A713
:100780000780418B11E7B7173D009387079061B74A
:10079000B7177A0093870720BDBFB7177A009387F2
:1007A0000720ADBFEFF2DFA803A6818083A6C1803A
:1007B00083A50181B7470F0093870724B3D6F602BC
:1007C000371500001305450C3356F602B3D5F50274
:1007D000A52C49B4EFF23FA40111AA8448080144B2
:1007E0002A89254333F8C502B3D8C5029377F80F99
:1007F000636E030393870703E207E1872300F50095
:100800000504050563F2C502A2899C4036C69C43D7
:1008100063F4D902BA853AC4268582972247B24644
:1008200009C93145056115B4C6856DBF9387770346
:10083000E1B78509D9BF7DD49C407D143307890079
:100840009C43830507002685829775D5D9BFEFF2B3
:100850003F9B4111AA84AE87328493095002930AC8
:100860000003130AA002294B838507001389170090
:1008700099E59C402685DC4382974101C1B263889B
:1008800035019C409C432685829741C5DDB703878F
:100890001700930B00026316570113892700930B6F
:1008A00000038146254705098307F9FF138607FDE5
:1008B0001376F60F6369C70093178601E187B38645
:1008C0006603BE96CDB76396470183070400110403
:1008D000FDB71307E0026390E70225460509830789
:1008E000F9FF138707FD1377F70FE379E6FE6394AB
:1008F00047011104E5B713073006638BE708634E21
:10090000F702130710046384E70E6346F700638859
:100910003713CA8791BF130730056387E7081307AA
:100920008005E398E7FE130C44005E8741460C40C7
:1009300026854D351DFD6284E9BF13079006638847
:10094000E700634AF70213074006E394E7FC130C41
:1009500044000040635D04009C4036C69305D0020D
:100960009C432685829711F5B246330480405E870A
:100970002946A28575BF130730076387E70213076F
:100980005007E398E7F8130C44005E87294645B703
:100990009C408305040026859C43930B440082976A
:1009A000E31905EC5E84B5B7832C040036C6668572
:1009B000852DB2462A8C83850C0081CD9C4036C69D
:1009C00026859C43850C8297B246E31405EAE3949E
:1009D0000CFE338C86416344800111041DBF9C4092
:1009E000DE8526859C437D1C829775D559B5032CE1
:1009F0008400832C0400032D4400931D8C01814B43
:100A000093DD8D4163C4AB01310421B763407003B2
:100A1000B3877C0183C5070013070003894641465D
:100A200026854D3BE31705E4850BE9BFE3020CFE89
:100A30009C40EE8526859C43829779D91DBD9C40BC
:100A4000930550029C4381B539712ED2AA85370592
:100A5000002032D413058511501006CE36D63AD870
:100A60003EDA42DC46DE32C6DD33F240216182806E
:100A7000832645400327054193074540958F6373BF
:100A8000F700BA87232AF5408DCB0327454A230672
:100A9000054054C7832745415CC31C41D44383D7D9
:100AA0000600C207C18393F7F7FBC207C1832390F7
:100AB000F6001C4393E717001CC382800327454AB6
:100AC0001C43F99B1CC3832645418327054103270B
:100AD0004540958F36972328F54093064540637926
:100AE000D7002322E54081EB85472306F54082802D
:100AF00013074500FDB7EFF2AFF39D3F6FF08FF5A1
:100B0000EFF20FF3653F6FF0EFF403270541930712
:100B1000F03F63EBE7028327854013871700232408
:100B2000E5402380B700032785409307454063666F
:100B3000F700930745002324F540832705418507E7
:100B40002328F54001458280314582808347C54096
:100B500091C7EFF2EFED293F6FF0CFEF82801C419C
:100B6000B746014093860680D8439043631BD70065
:100B700083A7C180B3D7C702C207C1832314F7007C
:100B8000828083A78180FDB7EFF28FEA1C412A841F
:100B90003715014083D507018546014613050580B9
:100BA00095321C408D46014683D507018847993A06
:100BB0001C40D843B7470140938707806313F7066B
:100BC000371702401C4F9166D58F1CCF2285413FBD
:100BD0001C401305044ADC4323980700EFF06FF430
:100BE0001C400327444A8966DC4391071CC71C400C
:100BF000DC4F1CC385472306F4401C403147DC43CF
:100C00002396E7001C401307000CDC43239AE700FF
:100C10001C40D8438357C700D58F2316F7006FF0C9
:100C20006FE3B747004093870740E311F7FA3717A0
:100C300002405C4FB7060200D58F5CCF41BF01A0D8
:100C400001A001A001A001A001A001A001A001A09C
:100C500001A001A001A001A001A001A001A001A08C
:100C600001A001A001A001A001A001A001A001A07C
:100C700001A001A001A001A001A001A001A001A06C
:100C800001A001A001A001A001A001A001A001A05C
:100C900001A001A001A001A001A001A001A001A04C
:100CA00001A001A001A001A001A001A001A001A03C
:100CB00001A001A001A001A001A001A001A001A02C
:100CC00001A001A001A001A001A001A001A001A01C
:100CD00001A001A001A001A001A001A001A001A00C
:100CE00001A001A001A001A001A001A001A001A0FC
:100CF00001A001A001A001A001A001A09701002076
:100D00009381C1BF177100201301C12F1705000087
:100D10001305855397F5FF1F9385C52E1386818094
:100D200063FAC5008322050023A055001105910533
:100D3000E3EAC5FE138581809385C1CF6377B50053
:100D4000232005001105E36DB5FEFD42739002BC42
:100D5000AD4273904280B76200009382820873A014
:100D6000023097F2FFFF9382622D93E2320073907C
:100D70005230EFF0EFCE970200009382E2057390BD
:100D80001234730020300145828001458280014584
:100D9000828001458280397132D4301006CE36D639
:100DA0003AD83EDA42DC46DE32C65534F2402161A2
:100DB00082801305C5B4C5B7EFF28FC7110579332B
:100DC0006FF04FC9EFF2CFC693F5F50F1105353B24
:100DD0006FF04FC8EFF2CFC54111EFF0AFF909ED59
:100DE0008146014689452945EFF01F83EFF02FFD2D
:100DF00001E50945EFF0DF87EFF09F8B1385418216
:100E0000613337160000B7150000371500001306D0
:100E1000062293850523130585233D316132EFF0CA
:100E2000EFFE631D05103715000013050521293954
:100E3000371401401305048085460146A145EFF0B3
:100E40006FE613050480894601468945EFF08FEB74
:100E5000894601468D4513050480EFF0AFEA1384FF
:100E6000C1811385C181EFF06FD61C40E17603D7B5
:100E7000070037060020B755014013670708239085
:100E8000E700130780072396E70203D7C700938480
:100E900041811306860D136707102396E70003D7D9
:100EA00007029385C5C413854181136717002390FA
:100EB000E7022392D70403D70702136707012390A1
:100EC000E7022392D7041307D0102394E70403D733
:100ED00087019D669386068042074183137707F05A
:100EE00013678706239CE70003D787011377F70F63
:100EF000558F42074183239CE700B707002083A654
:100F0000870F4147EFF0EFC7D840371601401C4329
:100F100093E717001CC318408357070093E7170097
:100F20002310F70037470F001307F72302C6B24715
:100F3000636BF700B24785073EC6D5BF3715000083
:100F400013054520EDB58327C68093C707102326D8
:100F5000F680E9BFEFF2CFAD7167938781CD1307BC
:100F6000072098C33747014013070780D8C33717B6
:100F700001401307078098C7D8C737070A0025071D
:100F800098CB0D47D8CB114798CF1307200913846E
:100F90000182D8CF1307000A98D35CC0371600002F
:100FA000930784002324F4402326F440930644004E
:100FB00085471305444A13070009130606B08D45FB
:100FC0002308F440232A0440232C0440232E044009
:100FD00023200442EFF04FB25C401305C44A1307CC
:100FE00000098C4F81460146EFF00FB1856793876A
:100FF000C71D1CC085679387871F232AF44AB757EC
:101000000140938707C023AEF18081461307000992
:101010000146B14513854181EFF00FAE6FF08FA30C
:10102000AA87850703C7F7FF6DFF3385A7407D15A6
:1010300082800000080002401C0002403000024094
:1010400044000240580002406C0002408000024010
:10105000080402401C0402403004024044040240E0
:10106000580402406C040240800402409004024094
:10107000A0040240B0040240C00402401B00000073
:101080001C0000001D0000001E0000001F000000EA
:10109000200000002100000048000000490000007E
:1010A0004A0000004B0000004C00000062000000FD
:1010B000630000006400000065000000660000009E
:1010C00067000000414842467265713D25754D48F4
:1010D0007A3B2041504231467265713D25754D483D
:1010E0007A3B2041504232467265713D25754D482C
:1010F0007A0D000000000000000000000000000069
:1011000000000000000000000000000000000000DF
:1011100000000000010000000200000003000000C9
:1011200004000000060000000700000008000000A6
:1011300009000000000000000000000000000000A6
:101140000000000001000000020000000300000099
:101150000400000024000000060000000800000059
:101160000A0000000C0000000E000000100000004B
:10117000120000001400000016000000180000001B
:101180001A0000001C0000000D0000001E000000FE
:101190002000000005000000190000000800000009
:1011A0000A0000000C0000000E000000100000000B
:1011B00012000000140000001600000018000000DB
:1011C0001A0000001C0000001E00000020000000AB
:1011D000280000000000000000000000C40D000016
:1011E000B80D0000960D0000860D00008E0D000069
:1011F0004CFBFFFF00000000B20D00008A0D000054
:10120000920D00004372797374616C206F6B0D0056
:101210004372797374616C204641494C0D000000A3
:1012200032303233303232355F3135303300000006
:1012300056333037455642000D25532025530D00B7
:04124000540F000047
:101244000000000000000000F000000000000000AA
:1012540000000000F000000000000000000000009A
:10126400F00000000000000000000000F00000009A
:101274000000000000000000F0000000000000007A
:1012840000000000F000000000000000000000006A
:10129400F00000000000000000000000F00000006A
:1012A4000000000000000000F0000000000000004A
:1012B40000000000F000000000000000000000003A
:1012C400F00000000000000000000000F00000003A
:1012D4000000000000000000F0000000000000001A
:1012E40000000000F000000000000000000000000A
:1012F400F00000000000000000000000F00000000A
:101304000000000000000000F000000000000000E9
:1013140000000000F00000000000000000000000D9
:1013240000000000000000002600260026005200F5
:101334002600520052002600B035000000000000D4
:00000001FF
