:100000006F00902C1300000013000000130000008C
:100010001300000013000000130000001300000094
:100020001300000013000000130000001300000084
:08003000130000007300100032
:1000380000000000000000000A0A00000C0A00008E
:10004800000000000E0A0000000000000000000090
:10005800100A0000120A0000000000000000000062
:10006800140A000000000000160A0000000000004A
:10007800180A00001A0A00001C0A00001E0A0000E4
:10008800200A0000220A0000240A0000260A0000B4
:10009800280A00002A0A00002C0A00002E0A000084
:1000A800300A0000320A000082030000360A00000D
:1000B800380A00003A0A00003C0A00003E0A000024
:1000C800400A0000420A0000440A0000460A0000F4
:1000D800480A00004A0A00004C0A00004E0A0000C4
:1000E800500A0000520A0000540A0000560A000094
:1000F800580A00005A0A00005C0A00005E0A000064
:10010800600A0000620A0000640A0000660A000033
:10011800680A00006A0A00006C0A00006E0A000003
:10012800700A0000720A0000740A0000760A0000D3
:10013800780A00007A0A00007C0A00007E0A0000A3
:10014800800A0000820A0000840A0000860A000073
:10015800880A00008A0A00008C0A00008E0A000043
:10016800900A0000920A0000940A0000960A000013
:10017800980A00009A0A00009C0A00009E0A0000E3
:10018800A00A0000A20A0000A40A0000A60A0000B3
:10019800A80A0000AA0A0000AC0A0000AE0A000083
:1001A800B00A0000B20A0000B40A0000B60A000053
:1001B800B80A0000BA0A0000BC0A0000BE0A000023
:1001C800C00A0000C20A0000C40A0000C60A0000F3
:1001D8000000000000000000000000000000000017
:1001E8000000000000000000000000000000000007
:0801F8000000000000000000FF
:10020000397101436EC619A0397141536AC866CA73
:1002100062CC5ECE19A0397101535AD056D252D455
:100220004ED64AD826DA22DC06DE330161408282CD
:1002300041114AC026C222C406C68282B24D410183
:10024000024D924C224CB24B4101024B924A224A3F
:10025000B2494101024992442244B24041018280A4
:10026000EFF21FFD856705641387C7ED130404EEE5
:10027000198C098481441389C7ED63938400D9BF25
:1002800093972400CA979C4385048297FDB7B717BC
:100290000140138707806319E500371702401C4FA0
:1002A00093E747001CCF8280138707C06318E500DF
:1002B000371702401C4F93E78700EDB76318F5002E
:1002C000371702401C4F93E70701E9BF93870740A8
:1002D0006318F500371702401C4F93E70702D9B7A0
:1002E000B727014093870780E31FF5FA37170240CD
:1002F0001C4F93E707047DB7856713982500938704
:1003000087CEC2979C430CC15CC1B147B387F5024D
:10031000B705002093850500BE9590C1D4C198C54E
:100320008280371702405C4B93E737005CCB144167
:100330003147B387E60237070020130707003E97CF
:100340001C4385CF8567938707D38A06BE96944260
:100350000346870037E700E0BA962380C640144181
:100360008A06B697904385469357560093870704AD
:100370008A07B396C600BA9794C35C4123A00700CE
:100380008280B707024005678C43D8C3B7070020B7
:1003900093870700D85309C78857B181BD89029751
:1003A00073002030EFF2DFE841112EC632C436C2AE
:1003B0002A84F13D22469246B2450A069D47D18ED7
:1003C00063E2B70218408A05BD47B397B70093C7E9
:1003D000F7FFF98F1CC01C40B396B600DD8E14C029
:1003E00041018DBD8A0558408115BD47B397B700BF
:1003F00093C7F7FFF98F5CC05C40B396B600DD8E03
:1004000054C0F9BFEFF2DFE241112EC632C436C24A
:100410002A84B53D371702401C4F22469246B2450A
:1004200093E717000A061CCF558E9D4793668600FA
:1004300063E2B70218408A05BD47B397B70093C778
:10044000F7FFF98F1CC01C40B396B600DD8E14C0B8
:10045000410109B5E11558408A05BD47B397B7007A
:1004600093C7F7FFF98F5CC05C40B396B600DD8E92
:1004700054C0F9BF371702405C43894689838D8B8E
:100480006391D70E5C43C18393F6C7038567938757
:1004900087E0B69790435C439396F70063D3060AD0
:1004A0005C5754579395F60063D405085457585732
:1004B000B7177A009387072011833D8B0507B3D7C1
:1004C000E70213D766009376C7030567130787E42F
:1004D00036971843B387E7028583B387C7028583BE
:1004E000371602405842B705002009839376C703A8
:1004F0000567130787DA369718438566938686DE85
:10050000B3D7E70023A4F180584250421983718B7E
:100510003697184333D7E70023ACE50C1357960002
:10052000718BBA969842B3D7E70023A2F1808280FC
:10053000BD8B37177A00850713070720B357F702DB
:1005400069BFB747024003A70780418B11E7B71780
:100550003D009387079051B7B7177A00938707201C
:10056000ADBFB7177A00938707209DBFEFF25FCC2E
:10057000370700200326870D83A6418083A581804D
:10058000B7470F0093870724B3D6F602371500004C
:10059000130585D73356F602B3D5F502A52C5DB900
:1005A000EFF27FC70111AA84480801442A89254334
:1005B00033F8C502B3D8C5029377F80F636E03030F
:1005C00093870703E207E1872300F500050405058B
:1005D00063F2C502A2899C4036C69C4363F4D902EB
:1005E000BA853AC4268582972247B24609C9314561
:1005F0000561A1B9C6856DBF93877703E1B785090A
:10060000D9BF7DD49C407D14330789009C4383056A
:1006100007002685829775D5D9BFEFF27FBE4111BD
:10062000AA84AE87328493095002930A0003130A06
:10063000A002294B838507001389170099E59C4088
:100640002685DC4382974101D5BE638835019C40F5
:100650009C432685829741C5DDB703871700930B1E
:1006600000026316570113892700930B000381468C
:10067000254705098307F9FF138607FD1376F60F53
:100680006369C70093178601E187B3866603BE9648
:10069000CDB763964701830704001104FDB7130724
:1006A000E0026390E702254605098307F9FF1387F7
:1006B00007FD1377F70FE379E6FE63944701110412
:1006C000E5B713073006638BE708634EF70213079D
:1006D00010046384E70E6346F70063883713CA8704
:1006E00091BF130730056387E70813078005E39878
:1006F000E7FE130C44005E8741460C4026854D35CD
:100700001DFD6284E9BF130790066388E700634A12
:10071000F70213074006E394E7FC130C4400004083
:10072000635D04009C4036C69305D0029C43268539
:10073000829711F5B246330480405E872946A28530
:1007400075BF130730076387E70213075007E39865
:10075000E7F8130C44005E87294645B79C408305A3
:10076000040026859C43930B44008297E31905EC13
:100770005E84B5B7832C040036C66685A92BB246C5
:100780002A8C83850C0081CD9C4036C626859C43EF
:10079000850C8297B246E31405EAE3940CFE338C91
:1007A00086416344800111041DBF9C40DE8526857F
:1007B0009C437D1C829775D559B5032C8400832CEE
:1007C0000400032D4400931D8C01814B93DD8D416A
:1007D00063C4AB01310421B763407003B3877C016C
:1007E00083C50700130700038946414626854D3B14
:1007F000E31705E4850BE9BFE3020CFE9C40EE85A0
:1008000026859C43829779D91DBD9C409305500253
:100810009C4381B539712ED2AA853705002032D488
:100820001305450E501006CE36D63AD83EDA42DCD5
:1008300046DE32C6DD33F2402161828083264540A8
:100840000327054193074540958F6373F700BA87E7
:10085000232AF5408DCB0327454A2306054054C77C
:10086000832745415CC31C41D44383D70600C2079C
:10087000C18393F7F7FBC207C1832390F6001C43A3
:1008800093E717001CC382800327454A1C43F99B4A
:100890001CC3832645418327054103274540958F87
:1008A00036972328F540930645406379D7002322E5
:1008B000E54081EB85472306F5408280130745001C
:1008C000FDB7EFF2FF969D3F71B2EFF27F966D3F5D
:1008D00051B2032705419307F03F63EBE7028327FB
:1008E0008540138717002324E5402380B7000327A2
:1008F0008540930745406366F7009307450023242E
:10090000F5408327054185072328F540014582806E
:10091000314582808347C54089C7EFF27F91393FD7
:1009200015BA82801C41B746014093860680D843A1
:100930009043631DD700B707002083A7C70DB3D727
:10094000C702C207C1832314F7008280B7070020C3
:1009500083A7870DEDB7EFF2BF8D1C412A843715B1
:10096000014083D507018546014613050580593CA2
:100970001C408D46014683D50701884761341C40E1
:10098000D843B7470140938707806312F7063717AC
:1009900002401C4F9166D58F1CCF228561371C40C9
:1009A0001305044ADC4323980700A53A1C4003279B
:1009B000444A8966DC4391071CC71C40DC4F1CC3BA
:1009C00085472306F4401C403147DC432396E7006B
:1009D0001C401307000CDC43239AE7001C40D8435B
:1009E0008357C700D58F2316F7006FF0BF86B74730
:1009F000004093870740E312F7FA371702405C4F35
:100A0000B7060200D58F5CCF49BF01A001A001A0AD
:100A100001A001A001A001A001A001A001A001A0CE
:100A200001A001A001A001A001A001A001A001A0BE
:100A300001A001A001A001A001A001A001A001A0AE
:100A400001A001A001A001A001A001A001A001A09E
:100A500001A001A001A001A001A001A001A001A08E
:100A600001A001A001A001A001A001A001A001A07E
:100A700001A001A001A001A001A001A001A001A06E
:100A800001A001A001A001A001A001A001A001A05E
:100A900001A001A001A001A001A001A001A001A04E
:100AA00001A001A001A001A001A001A001A001A03E
:100AB00001A001A001A001A001A001A001A001A02E
:100AC00001A001A001A001A097010020938101E1F4
:100AD000177100201301015317050000130585400D
:100AE00097F5FF1F9385055217F6FF1F1306065F44
:100AF00063FAC5008322050023A055001105910566
:100B0000E3EAC5FE17F5FF1F1305455D938581CE0A
:100B10006377B500232005001105E36DB5FEFD42A6
:100B2000739002BCAD4273904280B7620000938222
:100B3000820873A0023097F2FFFF9382225093E263
:100B4000320073905230EFF0AFF1970200009382C1
:100B5000E205739012347300203001458280014514
:100B600082800145828001458280397132D4301003
:100B700006CE36D63AD83EDA42DC46DE32C6713C84
:100B8000F240216182801305C5B4C5B7EFF24FEA88
:100B9000110549336FF00FECEFF28FE993F5F50F84
:100BA0001105053B6FF00FEBEFF2EFE64111EFF0AF
:100BB0007F8C13850181453337160000B71500007F
:100BC00037150000130686EB938585EC130505EDBC
:100BD000913137140140593AA145130504808546E7
:100BE0000146EFF02FFC93070010232AF480616484
:100BF00081451304F469B71901403719000002C692
:100C0000B2476366F400B24785073EC6D5BF83A7E7
:100C1000C980130589ED9384150093C7071023A697
:100C2000F980CD3EA685E1BFEFF28FE07167938733
:100C300041CC1307072098C33747014013070780AB
:100C4000D8C3371701401307078098C7D8C737079D
:100C50000A00250798CB0D47D8CB114798CF13072B
:100C600020091384C180D8CF1307000A98D35CC031
:100C700037160000930784002324F4402326F44011
:100C80009306440085471305444A130700091306D9
:100C9000A68C8D452308F440232A0440232C0440CD
:100CA000232E044023200442EFF00FE55C4013079D
:100CB000000981468C4F01461305C44AEFF0CFE38B
:100CC0008567938707E91CC085679387C7EA232A4E
:100CD000F44A6FF02FD8AA87850703C7F7FF6DFF87
:100CE0003385A7407D158280080002401C00024029
:100CF0003000024044000240580002406C000240B4
:100D000080000240080402401C04024030040240FB
:100D100044040240580402406C0402408004024033
:100D200090040240A0040240B0040240C00402400B
:100D30001B0000001C0000001D0000001E00000041
:100D40001F000000200000002100000048000000FB
:100D5000490000004A0000004B0000004C00000069
:100D600062000000630000006400000065000000F5
:100D70006600000067000000414842467265713D10
:100D800025754D487A3B2041504231467265713D90
:100D900025754D487A3B2041504232467265713D7F
:100DA00025754D487A0D000000000000000000008D
:100DB0000000000000000000000000000000000033
:100DC0000000000000000000010000000200000020
:100DD00003000000040000000600000007000000FF
:100DE00008000000090000000000000000000000F2
:100DF00000000000000000000100000002000000F0
:100E000003000000040000002400000006000000B1
:100E1000080000000A0000000C0000000E000000A6
:100E20001000000012000000140000001600000076
:100E3000180000001A0000001C0000000D00000057
:100E40001E00000020000000050000001900000046
:100E5000080000000A0000000C0000000E00000066
:100E60001000000012000000140000001600000036
:100E7000180000001A0000001C0000001E00000006
:100E8000200000002800000000000000000000001A
:100E9000980B00008C0B00006A0B00005A0B00003E
:100EA000620B00004CFBFFFF00000000860B0000FF
:100EB0005E0B0000660B00003230323330323233CA
:100EC0005F31353537000000563330374556420024
:0C0ED0000D25532025530D002575200032
:040EDC00280C0000DE
:100EE0000000000000000000F00000000000000012
:100EF00000000000F0000000000000000000000002
:100F0000F00000000000000000000000F000000001
:100F10000000000000000000F000000000000000E1
:100F200000000000F00000000000000000000000D1
:100F3000F00000000000000000000000F0000000D1
:100F40000000000000000000F000000000000000B1
:100F500000000000F00000000000000000000000A1
:100F6000F00000000000000000000000F0000000A1
:100F70000000000000000000F00000000000000081
:100F800000000000F0000000000000000000000071
:100F9000F00000000000000000000000F000000071
:100FA0000000000000000000F00000000000000051
:080FB00000000000F000000049
:00000001FF
